{
    "contractName": "AccessControl",
    "abi": [
        {
            "inputs": [
                {
                    "internalType": "address",
                    "name": "signerAddress",
                    "type": "address"
                }
            ],
            "stateMutability": "nonpayable",
            "type": "constructor"
        },
        {
            "anonymous": false,
            "inputs": [
                {
                    "indexed": false,
                    "internalType": "address",
                    "name": "admin",
                    "type": "address"
                },
                {
                    "indexed": false,
                    "internalType": "address",
                    "name": "sender",
                    "type": "address"
                }
            ],
            "name": "AdminAdded",
            "type": "event"
        },
        {
            "anonymous": false,
            "inputs": [
                {
                    "indexed": false,
                    "internalType": "address",
                    "name": "admin",
                    "type": "address"
                }
            ],
            "name": "AdminRemoved",
            "type": "event"
        },
        {
            "anonymous": false,
            "inputs": [],
            "name": "Initialized",
            "type": "event"
        },
        {
            "anonymous": false,
            "inputs": [
                {
                    "indexed": false,
                    "internalType": "uint256",
                    "name": "ocpId",
                    "type": "uint256"
                }
            ],
            "name": "OCPAdded",
            "type": "event"
        },
        {
            "anonymous": false,
            "inputs": [
                {
                    "indexed": false,
                    "internalType": "uint256",
                    "name": "policyId",
                    "type": "uint256"
                }
            ],
            "name": "PolicyAdded",
            "type": "event"
        },
        {
            "anonymous": false,
            "inputs": [
                {
                    "indexed": false,
                    "internalType": "uint256",
                    "name": "proposalId",
                    "type": "uint256"
                },
                {
                    "indexed": false,
                    "internalType": "uint256",
                    "name": "policyId",
                    "type": "uint256"
                }
            ],
            "name": "ProposalAccepted",
            "type": "event"
        },
        {
            "anonymous": false,
            "inputs": [
                {
                    "indexed": false,
                    "internalType": "uint256",
                    "name": "proposalId",
                    "type": "uint256"
                }
            ],
            "name": "ProposalCreated",
            "type": "event"
        },
        {
            "anonymous": false,
            "inputs": [],
            "name": "Signed",
            "type": "event"
        },
        {
            "inputs": [
                {
                    "internalType": "uint256",
                    "name": "proposalId",
                    "type": "uint256"
                }
            ],
            "name": "acceptProposal",
            "outputs": [],
            "stateMutability": "payable",
            "type": "function"
        },
        {
            "inputs": [
                {
                    "internalType": "address",
                    "name": "newAdmin",
                    "type": "address"
                }
            ],
            "name": "addAdmin",
            "outputs": [],
            "stateMutability": "nonpayable",
            "type": "function"
        },
        {
            "inputs": [
                {
                    "internalType": "uint256",
                    "name": "",
                    "type": "uint256"
                }
            ],
            "name": "admins",
            "outputs": [
                {
                    "internalType": "address",
                    "name": "",
                    "type": "address"
                }
            ],
            "stateMutability": "view",
            "type": "function"
        },
        {
            "inputs": [],
            "name": "adminsCount",
            "outputs": [
                {
                    "internalType": "uint256",
                    "name": "",
                    "type": "uint256"
                }
            ],
            "stateMutability": "view",
            "type": "function"
        },
        {
            "inputs": [],
            "name": "amountPaid",
            "outputs": [
                {
                    "internalType": "uint256",
                    "name": "",
                    "type": "uint256"
                }
            ],
            "stateMutability": "view",
            "type": "function"
        },
        {
            "inputs": [
                {
                    "internalType": "string",
                    "name": "resource",
                    "type": "string"
                },
                {
                    "internalType": "uint256",
                    "name": "startTime",
                    "type": "uint256"
                },
                {
                    "internalType": "uint256",
                    "name": "expiration",
                    "type": "uint256"
                }
            ],
            "name": "createOCP",
            "outputs": [],
            "stateMutability": "nonpayable",
            "type": "function"
        },
        {
            "inputs": [
                {
                    "internalType": "bytes32",
                    "name": "hashCode",
                    "type": "bytes32"
                },
                {
                    "internalType": "string",
                    "name": "resource",
                    "type": "string"
                },
                {
                    "internalType": "string",
                    "name": "location",
                    "type": "string"
                }
            ],
            "name": "createPolicy",
            "outputs": [],
            "stateMutability": "nonpayable",
            "type": "function"
        },
        {
            "inputs": [
                {
                    "internalType": "uint256",
                    "name": "proposalPrice",
                    "type": "uint256"
                },
                {
                    "internalType": "bytes32",
                    "name": "hashCode",
                    "type": "bytes32"
                },
                {
                    "internalType": "string",
                    "name": "resource",
                    "type": "string"
                },
                {
                    "internalType": "string",
                    "name": "location",
                    "type": "string"
                }
            ],
            "name": "createProposal",
            "outputs": [],
            "stateMutability": "nonpayable",
            "type": "function"
        },
        {
            "inputs": [
                {
                    "internalType": "uint256",
                    "name": "ocpId",
                    "type": "uint256"
                },
                {
                    "internalType": "string",
                    "name": "name",
                    "type": "string"
                }
            ],
            "name": "getOCPBoolParam",
            "outputs": [
                {
                    "internalType": "bool",
                    "name": "value",
                    "type": "bool"
                }
            ],
            "stateMutability": "view",
            "type": "function"
        },
        {
            "inputs": [
                {
                    "internalType": "uint256",
                    "name": "ocpId",
                    "type": "uint256"
                },
                {
                    "internalType": "string",
                    "name": "name",
                    "type": "string"
                }
            ],
            "name": "getOCPIntParam",
            "outputs": [
                {
                    "internalType": "int256",
                    "name": "value",
                    "type": "int256"
                }
            ],
            "stateMutability": "view",
            "type": "function"
        },
        {
            "inputs": [
                {
                    "internalType": "uint256",
                    "name": "ocpId",
                    "type": "uint256"
                },
                {
                    "internalType": "string",
                    "name": "name",
                    "type": "string"
                }
            ],
            "name": "getOCPStringParam",
            "outputs": [
                {
                    "internalType": "string",
                    "name": "value",
                    "type": "string"
                }
            ],
            "stateMutability": "view",
            "type": "function"
        },
        {
            "inputs": [
                {
                    "internalType": "uint256",
                    "name": "contractPrice",
                    "type": "uint256"
                }
            ],
            "name": "initializeContract",
            "outputs": [],
            "stateMutability": "nonpayable",
            "type": "function"
        },
        {
            "inputs": [],
            "name": "initialized",
            "outputs": [
                {
                    "internalType": "bool",
                    "name": "",
                    "type": "bool"
                }
            ],
            "stateMutability": "view",
            "type": "function"
        },
        {
            "inputs": [
                {
                    "internalType": "uint256",
                    "name": "",
                    "type": "uint256"
                }
            ],
            "name": "ocps",
            "outputs": [
                {
                    "internalType": "string",
                    "name": "resource",
                    "type": "string"
                },
                {
                    "internalType": "uint256",
                    "name": "startTime",
                    "type": "uint256"
                },
                {
                    "internalType": "uint256",
                    "name": "expiration",
                    "type": "uint256"
                }
            ],
            "stateMutability": "view",
            "type": "function"
        },
        {
            "inputs": [],
            "name": "ocpsCount",
            "outputs": [
                {
                    "internalType": "uint256",
                    "name": "",
                    "type": "uint256"
                }
            ],
            "stateMutability": "view",
            "type": "function"
        },
        {
            "inputs": [],
            "name": "owner",
            "outputs": [
                {
                    "internalType": "address payable",
                    "name": "",
                    "type": "address"
                }
            ],
            "stateMutability": "view",
            "type": "function"
        },
        {
            "inputs": [
                {
                    "internalType": "uint256",
                    "name": "",
                    "type": "uint256"
                }
            ],
            "name": "policies",
            "outputs": [
                {
                    "internalType": "bytes32",
                    "name": "hashCode",
                    "type": "bytes32"
                },
                {
                    "internalType": "string",
                    "name": "resource",
                    "type": "string"
                },
                {
                    "internalType": "string",
                    "name": "location",
                    "type": "string"
                }
            ],
            "stateMutability": "view",
            "type": "function"
        },
        {
            "inputs": [],
            "name": "policiesCount",
            "outputs": [
                {
                    "internalType": "uint256",
                    "name": "",
                    "type": "uint256"
                }
            ],
            "stateMutability": "view",
            "type": "function"
        },
        {
            "inputs": [],
            "name": "price",
            "outputs": [
                {
                    "internalType": "uint256",
                    "name": "",
                    "type": "uint256"
                }
            ],
            "stateMutability": "view",
            "type": "function"
        },
        {
            "inputs": [
                {
                    "internalType": "uint256",
                    "name": "",
                    "type": "uint256"
                }
            ],
            "name": "proposals",
            "outputs": [
                {
                    "internalType": "bool",
                    "name": "accepted",
                    "type": "bool"
                },
                {
                    "internalType": "uint256",
                    "name": "price",
                    "type": "uint256"
                },
                {
                    "internalType": "uint256",
                    "name": "amountPaid",
                    "type": "uint256"
                },
                {
                    "internalType": "bytes32",
                    "name": "hashCode",
                    "type": "bytes32"
                },
                {
                    "internalType": "string",
                    "name": "resource",
                    "type": "string"
                },
                {
                    "internalType": "string",
                    "name": "location",
                    "type": "string"
                }
            ],
            "stateMutability": "view",
            "type": "function"
        },
        {
            "inputs": [],
            "name": "proposalsCount",
            "outputs": [
                {
                    "internalType": "uint256",
                    "name": "",
                    "type": "uint256"
                }
            ],
            "stateMutability": "view",
            "type": "function"
        },
        {
            "inputs": [
                {
                    "internalType": "address",
                    "name": "admin",
                    "type": "address"
                }
            ],
            "name": "removeAdmin",
            "outputs": [],
            "stateMutability": "nonpayable",
            "type": "function"
        },
        {
            "inputs": [
                {
                    "internalType": "uint256",
                    "name": "ocpId",
                    "type": "uint256"
                },
                {
                    "internalType": "string",
                    "name": "name",
                    "type": "string"
                },
                {
                    "internalType": "bool",
                    "name": "value",
                    "type": "bool"
                }
            ],
            "name": "setOCPBoolParam",
            "outputs": [],
            "stateMutability": "nonpayable",
            "type": "function"
        },
        {
            "inputs": [
                {
                    "internalType": "uint256",
                    "name": "ocpId",
                    "type": "uint256"
                },
                {
                    "internalType": "string",
                    "name": "name",
                    "type": "string"
                },
                {
                    "internalType": "int256",
                    "name": "value",
                    "type": "int256"
                }
            ],
            "name": "setOCPIntParam",
            "outputs": [],
            "stateMutability": "nonpayable",
            "type": "function"
        },
        {
            "inputs": [
                {
                    "internalType": "uint256",
                    "name": "ocpId",
                    "type": "uint256"
                },
                {
                    "internalType": "string",
                    "name": "name",
                    "type": "string"
                },
                {
                    "internalType": "string",
                    "name": "value",
                    "type": "string"
                }
            ],
            "name": "setOCPStringParam",
            "outputs": [],
            "stateMutability": "nonpayable",
            "type": "function"
        },
        {
            "inputs": [
                {
                    "internalType": "string",
                    "name": "pubKey",
                    "type": "string"
                }
            ],
            "name": "signContract",
            "outputs": [],
            "stateMutability": "payable",
            "type": "function"
        },
        {
            "inputs": [],
            "name": "signed",
            "outputs": [
                {
                    "internalType": "bool",
                    "name": "",
                    "type": "bool"
                }
            ],
            "stateMutability": "view",
            "type": "function"
        },
        {
            "inputs": [],
            "name": "signer",
            "outputs": [
                {
                    "internalType": "address",
                    "name": "",
                    "type": "address"
                }
            ],
            "stateMutability": "view",
            "type": "function"
        },
        {
            "inputs": [],
            "name": "userPubKey",
            "outputs": [
                {
                    "internalType": "string",
                    "name": "",
                    "type": "string"
                }
            ],
            "stateMutability": "view",
            "type": "function"
        }
    ],
    "bytecode": "60806040526004805460ff199081169091556000600581905560065560078054909116905534801561003057600080fd5b50604051611ffa380380611ffa83398101604081905261004f916100c2565b60008054336001600160a01b031991821681178355600180548082018255938190527fb10e2d527612073b26eecdfd717e6a320cf44b4afac2b0732d9fcbe2b7fa0cf6909301805483169091179055600e91909155600280549091166001600160a01b03929092169190911790556100f2565b6000602082840312156100d457600080fd5b81516001600160a01b03811681146100eb57600080fd5b9392505050565b611ef9806101016000396000f3fe6080604052600436106101c25760003560e01c80633f461af4116100f7578063ac0e275a11610095578063c63576e411610064578063c63576e4146104f6578063ced4aa4014610509578063d02d23fa14610529578063d3e894831461054957600080fd5b8063ac0e275a14610476578063aff02c1714610496578063b3f4813d146104b6578063c286a7a6146104d657600080fd5b80638da5cb5b116100d15780638da5cb5b1461040b57806391733df51461042b578063a035b1fe1461044b578063a6dc88e51461046157600080fd5b80633f461af4146103b857806360c5cc3a146103d857806370480275146103eb57600080fd5b80631c41e5a111610164578063216340c31161013e578063216340c314610339578063232a6b9d1461034f578063238ac93314610369578063345671651461038957600080fd5b80631c41e5a1146102d65780631e6de6e4146102ec5780631e8d33ae1461031957600080fd5b806312d32c5d116101a057806312d32c5d1461023c57806314bfd6d014610252578063158ef93e1461028a5780631785f53c146102b457600080fd5b8063013cf08b146101c75780630a9f46ad146102025780630b100a5a14610226575b600080fd5b3480156101d357600080fd5b506101e76101e2366004611afe565b610578565b6040516101f996959493929190611ccd565b60405180910390f35b34801561020e57600080fd5b50610218600d5481565b6040519081526020016101f9565b34801561023257600080fd5b50610218600c5481565b34801561024857600080fd5b50610218600b5481565b34801561025e57600080fd5b5061027261026d366004611afe565b6106c3565b6040516001600160a01b0390911681526020016101f9565b34801561029657600080fd5b506004546102a49060ff1681565b60405190151581526020016101f9565b3480156102c057600080fd5b506102d46102cf3660046119d6565b6106ed565b005b3480156102e257600080fd5b50610218600e5481565b3480156102f857600080fd5b5061030c610307366004611b8e565b6108a5565b6040516101f99190611d4e565b34801561032557600080fd5b506102d4610334366004611c35565b61096b565b34801561034557600080fd5b5061021860065481565b34801561035b57600080fd5b506007546102a49060ff1681565b34801561037557600080fd5b50600254610272906001600160a01b031681565b34801561039557600080fd5b506103a96103a4366004611afe565b610a3f565b6040516101f993929190611d61565b3480156103c457600080fd5b506102d46103d3366004611afe565b610ae9565b6102d46103e6366004611afe565b610bc1565b3480156103f757600080fd5b506102d46104063660046119d6565b610dd5565b34801561041757600080fd5b50600054610272906001600160a01b031681565b34801561043757600080fd5b506102d4610446366004611a06565b610eec565b34801561045757600080fd5b5061021860055481565b34801561046d57600080fd5b5061030c611019565b34801561048257600080fd5b506102d4610491366004611bd5565b6110a7565b3480156104a257600080fd5b506102d46104b1366004611ab0565b61118b565b3480156104c257600080fd5b506102d46104d1366004611a06565b61129e565b3480156104e257600080fd5b506102a46104f1366004611b8e565b611384565b6102d4610504366004611a73565b6113c0565b34801561051557600080fd5b50610218610524366004611b8e565b61155c565b34801561053557600080fd5b506102d4610544366004611b17565b611595565b34801561055557600080fd5b50610569610564366004611afe565b611702565b6040516101f993929190611d19565b600a602052600090815260409020805460018201546002830154600384015460048501805460ff909516959394929391926105b290611e2b565b80601f01602080910402602001604051908101604052809291908181526020018280546105de90611e2b565b801561062b5780601f106106005761010080835404028352916020019161062b565b820191906000526020600020905b81548152906001019060200180831161060e57829003601f168201915b50505050509080600501805461064090611e2b565b80601f016020809104026020016040519081016040528092919081815260200182805461066c90611e2b565b80156106b95780601f1061068e576101008083540402835291602001916106b9565b820191906000526020600020905b81548152906001019060200180831161069c57829003601f168201915b5050505050905086565b600181815481106106d357600080fd5b6000918252602090912001546001600160a01b0316905081565b6000546001600160a01b0316331461073c5760405162461bcd60e51b815260206004820152600d60248201526c2737ba103a34329037bbb732b960991b60448201526064015b60405180910390fd5b6000546001600160a01b038281169116141561079a5760405162461bcd60e51b815260206004820152601760248201527f43616e6e6f742072656d6f766520746865206f776e65720000000000000000006044820152606401610733565b600080805b6001548110156107f957600181815481106107bc576107bc611e97565b6000918252602090912001546001600160a01b03858116911614156107e757600192508091506107f9565b806107f181611e66565b91505061079f565b50816108395760405162461bcd60e51b815260206004820152600f60248201526e10591b5a5b881b9bdd08199bdd5b99608a1b6044820152606401610733565b6001818154811061084c5761084c611e97565b60009182526020918290200180546001600160a01b03191690556040516001600160a01b03851681527fa3b62bc36326052d97ea62d63c3d60308ed4c3ea8ac079dd8499f1e9c4f80c0f910160405180910390a1505050565b6000828152600860205260409081902090516060919060058201906108cb908590611cb1565b908152602001604051809103902080546108e490611e2b565b80601f016020809104026020016040519081016040528092919081815260200182805461091090611e2b565b801561095d5780601f106109325761010080835404028352916020019161095d565b820191906000526020600020905b81548152906001019060200180831161094057829003601f168201915b505050505091505092915050565b6000805b6001548110156109c3576001818154811061098c5761098c611e97565b6000918252602090912001546001600160a01b03163314156109b157600191506109c3565b806109bb81611e66565b91505061096f565b50806109e15760405162461bcd60e51b815260040161073390611d86565b60045460ff1615610a045760405162461bcd60e51b815260040161073390611dac565b60008481526008602052604090819020905183906004830190610a28908790611cb1565b908152604051908190036020019020555050505050565b600860205260009081526040902080548190610a5a90611e2b565b80601f0160208091040260200160405190810160405280929190818152602001828054610a8690611e2b565b8015610ad35780601f10610aa857610100808354040283529160200191610ad3565b820191906000526020600020905b815481529060010190602001808311610ab657829003601f168201915b5050505050908060010154908060020154905083565b6000805b600154811015610b415760018181548110610b0a57610b0a611e97565b6000918252602090912001546001600160a01b0316331415610b2f5760019150610b41565b80610b3981611e66565b915050610aed565b5080610b5f5760405162461bcd60e51b815260040161073390611d86565b60045460ff1615610b825760405162461bcd60e51b815260040161073390611dac565b60058290556004805460ff191660011790556040517f5daa87a0e9463431830481fd4b6e3403442dfb9a12b9c07597e9f61d50b633c890600090a15050565b6002546001600160a01b03163314610c0c5760405162461bcd60e51b815260206004820152600e60248201526d2737ba103a34329039b4b3b732b960911b6044820152606401610733565b60075460ff16610c545760405162461bcd60e51b815260206004820152601360248201527210dbdb9d1c9858dd081b9bdd081cda59db9959606a1b6044820152606401610733565b6000818152600a60205260409020805460ff1615610cb45760405162461bcd60e51b815260206004820152601960248201527f50726f706f73616c20616c7265616479206163636570746564000000000000006044820152606401610733565b34816002016000828254610cc89190611de3565b90915550506001810154600282015410610dd157805460ff19166001908117825560008054918301546040516001600160a01b039093169281156108fc0292818181858888f19350505050158015610d24573d6000803e3d6000fd5b50600c805460009182610d3683611e66565b909155506000818152600960205260409020600384015481556004840180549293509091600183019190610d6990611e2b565b610d74929190611835565b508260050181600201908054610d8990611e2b565b610d94929190611835565b5060408051858152602081018490527ff956a500d6c2e87a488e6827b381acae13cbf34caafe6373127af401151c7f27910160405180910390a150505b5050565b6000805b600154811015610e2d5760018181548110610df657610df6611e97565b6000918252602090912001546001600160a01b0316331415610e1b5760019150610e2d565b80610e2581611e66565b915050610dd9565b5080610e4b5760405162461bcd60e51b815260040161073390611d86565b60018054808201825560009182527fb10e2d527612073b26eecdfd717e6a320cf44b4afac2b0732d9fcbe2b7fa0cf60180546001600160a01b0319166001600160a01b038516179055600e805491610ea283611e66565b9091555050604080516001600160a01b03841681523360208201527fbf3f493c772c8c283fd124432c2d0f539ab343faa04258fe88e52912d36b102b910160405180910390a15050565b6000805b600154811015610f445760018181548110610f0d57610f0d611e97565b6000918252602090912001546001600160a01b0316331415610f325760019150610f44565b80610f3c81611e66565b915050610ef0565b5080610f625760405162461bcd60e51b815260040161073390611d86565b60045460ff1615610f855760405162461bcd60e51b815260040161073390611dac565b600c805460009182610f9683611e66565b909155506000818152600960209081526040909120878155865192935091610fc6916001840191908801906118c0565b508351610fdc90600283019060208701906118c0565b506040518281527f024a1db391c63d350ba33664c84386c69b2f4891094f69f737890d6cba9603fb906020015b60405180910390a1505050505050565b6003805461102690611e2b565b80601f016020809104026020016040519081016040528092919081815260200182805461105290611e2b565b801561109f5780601f106110745761010080835404028352916020019161109f565b820191906000526020600020905b81548152906001019060200180831161108257829003601f168201915b505050505081565b6000805b6001548110156110ff57600181815481106110c8576110c8611e97565b6000918252602090912001546001600160a01b03163314156110ed57600191506110ff565b806110f781611e66565b9150506110ab565b508061111d5760405162461bcd60e51b815260040161073390611d86565b60045460ff16156111405760405162461bcd60e51b815260040161073390611dac565b60008481526008602052604090819020905183906003830190611164908790611cb1565b908152604051908190036020019020805491151560ff199092169190911790555050505050565b6000805b6001548110156111e357600181815481106111ac576111ac611e97565b6000918252602090912001546001600160a01b03163314156111d157600191506111e3565b806111db81611e66565b91505061118f565b50806112015760405162461bcd60e51b815260040161073390611d86565b60045460ff16156112245760405162461bcd60e51b815260040161073390611dac565b600b80546000918261123583611e66565b90915550600081815260086020908152604090912087519293509161125f918391908901906118c0565b5060018101859055600281018490556040518281527f53096beaf2b2cb83337c7b5f2d9bc4d0568cbd236b4a31180a7ae9fdf3adf79c90602001611009565b6000805b6001548110156112f657600181815481106112bf576112bf611e97565b6000918252602090912001546001600160a01b03163314156112e457600191506112f6565b806112ee81611e66565b9150506112a2565b50806113145760405162461bcd60e51b815260040161073390611d86565b60045460ff16156113375760405162461bcd60e51b815260040161073390611dac565b6000848152600860205260409081902090518390600583019061135b908790611cb1565b9081526020016040518091039020908051906020019061137c9291906118c0565b505050505050565b600082815260086020526040808220905160038201906113a5908590611cb1565b9081526040519081900360200190205460ff16949350505050565b6002546001600160a01b0316331461140b5760405162461bcd60e51b815260206004820152600e60248201526d2737ba103a34329039b4b3b732b960911b6044820152606401610733565b60045460ff1661145d5760405162461bcd60e51b815260206004820152601860248201527f436f6e7472616374206e6f7420696e697469616c697a656400000000000000006044820152606401610733565b60075460ff16156114b05760405162461bcd60e51b815260206004820152601760248201527f436f6e747261637420616c7265616479207369676e65640000000000000000006044820152606401610733565b34600660008282546114c29190611de3565b90915550506005546006541061155957600080546005546040516001600160a01b039092169281156108fc029290818181858888f1935050505015801561150d573d6000803e3d6000fd5b506007805460ff19166001179055805161152e9060039060208401906118c0565b506040517f1da2cec5b2f0b1af28e20209516ad5cb9eca603a12a2e2456502e9c7600ad51190600090a15b50565b6000828152600860205260408082209051600482019061157d908590611cb1565b90815260200160405180910390205491505092915050565b6000805b6001548110156115ed57600181815481106115b6576115b6611e97565b6000918252602090912001546001600160a01b03163314156115db57600191506115ed565b806115e581611e66565b915050611599565b508061160b5760405162461bcd60e51b815260040161073390611d86565b60075460ff166116535760405162461bcd60e51b815260206004820152601360248201527210dbdb9d1c9858dd081b9bdd081cda59db9959606a1b6044820152606401610733565b600d80546000918261166483611e66565b909155506000818152600a602090815260408220805460ff19168155600181018a9055600281019290925560038201889055865192935090916116af916004840191908801906118c0565b5083516116c590600583019060208701906118c0565b506040518281527fc2c021f5d73c63c481d336fbbafec58f694fc45095f00b02d2deb8cca59afe079060200160405180910390a150505050505050565b6009602052600090815260409020805460018201805491929161172490611e2b565b80601f016020809104026020016040519081016040528092919081815260200182805461175090611e2b565b801561179d5780601f106117725761010080835404028352916020019161179d565b820191906000526020600020905b81548152906001019060200180831161178057829003601f168201915b5050505050908060020180546117b290611e2b565b80601f01602080910402602001604051908101604052809291908181526020018280546117de90611e2b565b801561182b5780601f106118005761010080835404028352916020019161182b565b820191906000526020600020905b81548152906001019060200180831161180e57829003601f168201915b5050505050905083565b82805461184190611e2b565b90600052602060002090601f01602090048101928261186357600085556118b0565b82601f1061187457805485556118b0565b828001600101855582156118b057600052602060002091601f016020900482015b828111156118b0578254825591600101919060010190611895565b506118bc929150611934565b5090565b8280546118cc90611e2b565b90600052602060002090601f0160209004810192826118ee57600085556118b0565b82601f1061190757805160ff19168380011785556118b0565b828001600101855582156118b0579182015b828111156118b0578251825591602001919060010190611919565b5b808211156118bc5760008155600101611935565b600082601f83011261195a57600080fd5b813567ffffffffffffffff8082111561197557611975611ead565b604051601f8301601f19908116603f0116810190828211818310171561199d5761199d611ead565b816040528381528660208588010111156119b657600080fd5b836020870160208301376000602085830101528094505050505092915050565b6000602082840312156119e857600080fd5b81356001600160a01b03811681146119ff57600080fd5b9392505050565b600080600060608486031215611a1b57600080fd5b83359250602084013567ffffffffffffffff80821115611a3a57600080fd5b611a4687838801611949565b93506040860135915080821115611a5c57600080fd5b50611a6986828701611949565b9150509250925092565b600060208284031215611a8557600080fd5b813567ffffffffffffffff811115611a9c57600080fd5b611aa884828501611949565b949350505050565b600080600060608486031215611ac557600080fd5b833567ffffffffffffffff811115611adc57600080fd5b611ae886828701611949565b9660208601359650604090950135949350505050565b600060208284031215611b1057600080fd5b5035919050565b60008060008060808587031215611b2d57600080fd5b8435935060208501359250604085013567ffffffffffffffff80821115611b5357600080fd5b611b5f88838901611949565b93506060870135915080821115611b7557600080fd5b50611b8287828801611949565b91505092959194509250565b60008060408385031215611ba157600080fd5b82359150602083013567ffffffffffffffff811115611bbf57600080fd5b611bcb85828601611949565b9150509250929050565b600080600060608486031215611bea57600080fd5b83359250602084013567ffffffffffffffff811115611c0857600080fd5b611c1486828701611949565b92505060408401358015158114611c2a57600080fd5b809150509250925092565b600080600060608486031215611c4a57600080fd5b83359250602084013567ffffffffffffffff811115611c6857600080fd5b611c7486828701611949565b925050604084013590509250925092565b60008151808452611c9d816020860160208601611dfb565b601f01601f19169290920160200192915050565b60008251611cc3818460208701611dfb565b9190910192915050565b861515815285602082015284604082015283606082015260c060808201526000611cfa60c0830185611c85565b82810360a0840152611d0c8185611c85565b9998505050505050505050565b838152606060208201526000611d326060830185611c85565b8281036040840152611d448185611c85565b9695505050505050565b6020815260006119ff6020830184611c85565b606081526000611d746060830186611c85565b60208301949094525060400152919050565b6020808252600c908201526b2737ba1030b71030b236b4b760a11b604082015260600190565b6020808252601c908201527f436f6e747261637420616c726561647920696e697469616c697a656400000000604082015260600190565b60008219821115611df657611df6611e81565b500190565b60005b83811015611e16578181015183820152602001611dfe565b83811115611e25576000848401525b50505050565b600181811c90821680611e3f57607f821691505b60208210811415611e6057634e487b7160e01b600052602260045260246000fd5b50919050565b6000600019821415611e7a57611e7a611e81565b5060010190565b634e487b7160e01b600052601160045260246000fd5b634e487b7160e01b600052603260045260246000fd5b634e487b7160e01b600052604160045260246000fdfea2646970667358221220fcae4afa821cb5d477516a3f198fcbf9395b0f747948d3c794fd8ee28bb09d3e64736f6c63430008060033",
    "sourcePath": "c:/Users/Scar/source/repos/BlockchainAuthIoT/BlockchainAuthIoT.Core/Contracts/AccessControl.sol",
    "compiler": {
        "name": "solc",
        "version": "0.8.6+commit.11564f7e"
    },
    "functionHashes": {
        "acceptProposal(uint256)": "60c5cc3a",
        "addAdmin(address)": "70480275",
        "admins(uint256)": "14bfd6d0",
        "adminsCount()": "1c41e5a1",
        "amountPaid()": "216340c3",
        "createOCP(string,uint256,uint256)": "aff02c17",
        "createPolicy(bytes32,string,string)": "91733df5",
        "createProposal(uint256,bytes32,string,string)": "d02d23fa",
        "getOCPBoolParam(uint256,string)": "c286a7a6",
        "getOCPIntParam(uint256,string)": "ced4aa40",
        "getOCPStringParam(uint256,string)": "1e6de6e4",
        "initializeContract(uint256)": "3f461af4",
        "initialized()": "158ef93e",
        "ocps(uint256)": "34567165",
        "ocpsCount()": "12d32c5d",
        "owner()": "8da5cb5b",
        "policies(uint256)": "d3e89483",
        "policiesCount()": "0b100a5a",
        "price()": "a035b1fe",
        "proposals(uint256)": "013cf08b",
        "proposalsCount()": "0a9f46ad",
        "removeAdmin(address)": "1785f53c",
        "setOCPBoolParam(uint256,string,bool)": "ac0e275a",
        "setOCPIntParam(uint256,string,int256)": "1e8d33ae",
        "setOCPStringParam(uint256,string,string)": "b3f4813d",
        "signContract(string)": "c63576e4",
        "signed()": "232a6b9d",
        "signer()": "238ac933",
        "userPubKey()": "a6dc88e5"
    },
    "gasEstimates": {
        "creation": {
            "codeDepositCost": "1585800",
            "executionCost": "infinite",
            "totalCost": "infinite"
        },
        "external": {
            "acceptProposal(uint256)": "infinite",
            "addAdmin(address)": "80984",
            "admins(uint256)": "4682",
            "adminsCount()": "2341",
            "amountPaid()": "2340",
            "createOCP(string,uint256,uint256)": "infinite",
            "createPolicy(bytes32,string,string)": "infinite",
            "createProposal(uint256,bytes32,string,string)": "infinite",
            "getOCPBoolParam(uint256,string)": "infinite",
            "getOCPIntParam(uint256,string)": "infinite",
            "getOCPStringParam(uint256,string)": "infinite",
            "initializeContract(uint256)": "infinite",
            "initialized()": "2400",
            "ocps(uint256)": "infinite",
            "ocpsCount()": "2341",
            "owner()": "2382",
            "policies(uint256)": "infinite",
            "policiesCount()": "2386",
            "price()": "2384",
            "proposals(uint256)": "infinite",
            "proposalsCount()": "2364",
            "removeAdmin(address)": "infinite",
            "setOCPBoolParam(uint256,string,bool)": "infinite",
            "setOCPIntParam(uint256,string,int256)": "infinite",
            "setOCPStringParam(uint256,string,string)": "infinite",
            "signContract(string)": "infinite",
            "signed()": "2377",
            "signer()": "2426",
            "userPubKey()": "infinite"
        }
    }
}